{
  "contractName": "DemoNFTMarketplace",
  "abi": [
    {
      "inputs": [
        {
          "internalType": "uint256",
          "name": "",
          "type": "uint256"
        }
      ],
      "name": "tokens",
      "outputs": [
        {
          "internalType": "address",
          "name": "",
          "type": "address"
        }
      ],
      "stateMutability": "view",
      "type": "function",
      "constant": true
    },
    {
      "inputs": [
        {
          "internalType": "uint256",
          "name": "_tokenId",
          "type": "uint256"
        }
      ],
      "name": "purchase",
      "outputs": [],
      "stateMutability": "payable",
      "type": "function",
      "payable": true
    },
    {
      "inputs": [],
      "name": "getPrice",
      "outputs": [
        {
          "internalType": "uint256",
          "name": "",
          "type": "uint256"
        }
      ],
      "stateMutability": "view",
      "type": "function",
      "constant": true
    },
    {
      "inputs": [
        {
          "internalType": "uint256",
          "name": "_tokenId",
          "type": "uint256"
        }
      ],
      "name": "available",
      "outputs": [
        {
          "internalType": "bool",
          "name": "",
          "type": "bool"
        }
      ],
      "stateMutability": "view",
      "type": "function",
      "constant": true
    }
  ],
  "bytecode": "0x608060405267016345785d8a000060015534801561001b575f80fd5b50610405806100295f395ff3fe60806040526004361061003e575f3560e01c80634f64b2be1461004257806396e494e81461007e57806398d5fdca146100ba578063efef39a1146100e4575b5f80fd5b34801561004d575f80fd5b5061006860048036038101906100639190610279565b610100565b60405161007591906102e3565b60405180910390f35b348015610089575f80fd5b506100a4600480360381019061009f9190610279565b61012f565b6040516100b19190610316565b60405180910390f35b3480156100c5575f80fd5b506100ce6101a4565b6040516100db919061033e565b60405180910390f35b6100fe60048036038101906100f99190610279565b6101ad565b005b5f602052805f5260405f205f915054906101000a900473ffffffffffffffffffffffffffffffffffffffff1681565b5f8073ffffffffffffffffffffffffffffffffffffffff165f808481526020019081526020015f205f9054906101000a900473ffffffffffffffffffffffffffffffffffffffff1673ffffffffffffffffffffffffffffffffffffffff160361019b576001905061019f565b5f90505b919050565b5f600154905090565b60015434146101f1576040517f08c379a00000000000000000000000000000000000000000000000000000000081526004016101e8906103b1565b60405180910390fd5b335f808381526020019081526020015f205f6101000a81548173ffffffffffffffffffffffffffffffffffffffff021916908373ffffffffffffffffffffffffffffffffffffffff16021790555050565b5f80fd5b5f819050919050565b61025881610246565b8114610262575f80fd5b50565b5f813590506102738161024f565b92915050565b5f6020828403121561028e5761028d610242565b5b5f61029b84828501610265565b91505092915050565b5f73ffffffffffffffffffffffffffffffffffffffff82169050919050565b5f6102cd826102a4565b9050919050565b6102dd816102c3565b82525050565b5f6020820190506102f65f8301846102d4565b92915050565b5f8115159050919050565b610310816102fc565b82525050565b5f6020820190506103295f830184610307565b92915050565b61033881610246565b82525050565b5f6020820190506103515f83018461032f565b92915050565b5f82825260208201905092915050565b7f54686973204e465420636f73747320302e3120657468657200000000000000005f82015250565b5f61039b601883610357565b91506103a682610367565b602082019050919050565b5f6020820190508181035f8301526103c88161038f565b905091905056fea2646970667358221220915d5f0f52b38cc72106489218c0292d582cc95a1f71a65b963baee39ab372d064736f6c63430008150033",
  "immutableReferences": {},
  "source": "// SPDX-License-Identifier: MIT\r\npragma solidity ^0.8.20;\r\n\r\ncontract DemoNFTMarketplace {\r\n    /// @dev Maintain a mapping of Fake TokenID to Owner addresses\r\n    mapping(uint256 => address) public tokens;\r\n    \r\n    /// @dev Set the purchase price for each Fake NFT\r\n    uint256 nftPrice = 0.1 ether;\r\n\r\n    /// @dev purchase() accepts ETH and marks the owner of the given tokenId as the caller address\r\n    /// @param _tokenId - the fake NFT token Id to purchase\r\n    function purchase(uint256 _tokenId) external payable {\r\n        require(msg.value == nftPrice, \"This NFT costs 0.1 ether\");\r\n        tokens[_tokenId] = msg.sender;\r\n    }\r\n\r\n    /// @dev getPrice() returns the price of one NFT\r\n    function getPrice() external view returns (uint256) {\r\n        return nftPrice;\r\n    }\r\n\r\n    /// @dev available() checks whether the given tokenId has already been sold or not\r\n    /// @param _tokenId - the tokenId to check for\r\n    function available(uint256 _tokenId) external view returns (bool) {\r\n        // address(0) = 0x0000000000000000000000000000000000000000\r\n        // This is the default value for addresses in Solidity\r\n        if (tokens[_tokenId] == address(0)) {\r\n            return true;\r\n        }\r\n        return false;\r\n    }\r\n}",
  "sourcePath": "C:\\Users\\Funso Faleye\\Desktop\\web3\\NFT powered DAO\\my-nft-powered-dao\\contracts\\DemoNFTMarketplace.sol",
  "compiler": {
    "name": "solc",
    "version": "0.8.21+commit.d9974bed.Emscripten.clang"
  },
  "schemaVersion": "3.4.16",
  "updatedAt": "2025-01-03T12:57:47.228Z",
  "networkType": "ethereum",
  "devdoc": {
    "kind": "dev",
    "methods": {
      "available(uint256)": {
        "details": "available() checks whether the given tokenId has already been sold or not",
        "params": {
          "_tokenId": "- the tokenId to check for"
        }
      },
      "getPrice()": {
        "details": "getPrice() returns the price of one NFT"
      },
      "purchase(uint256)": {
        "details": "purchase() accepts ETH and marks the owner of the given tokenId as the caller address",
        "params": {
          "_tokenId": "- the fake NFT token Id to purchase"
        }
      }
    },
    "stateVariables": {
      "nftPrice": {
        "details": "Set the purchase price for each Fake NFT"
      },
      "tokens": {
        "details": "Maintain a mapping of Fake TokenID to Owner addresses"
      }
    },
    "version": 1
  },
  "userdoc": {
    "kind": "user",
    "methods": {},
    "version": 1
  }
}