{
  "contractName": "MemersDAO",
  "abi": [
    {
      "inputs": [
        {
          "internalType": "address",
          "name": "_nftMarketplace",
          "type": "address"
        },
        {
          "internalType": "address",
          "name": "_cryptoDevsNFT",
          "type": "address"
        }
      ],
      "stateMutability": "payable",
      "type": "constructor",
      "payable": true
    },
    {
      "inputs": [
        {
          "internalType": "address",
          "name": "owner",
          "type": "address"
        }
      ],
      "name": "OwnableInvalidOwner",
      "type": "error"
    },
    {
      "inputs": [
        {
          "internalType": "address",
          "name": "account",
          "type": "address"
        }
      ],
      "name": "OwnableUnauthorizedAccount",
      "type": "error"
    },
    {
      "anonymous": false,
      "inputs": [
        {
          "indexed": true,
          "internalType": "address",
          "name": "previousOwner",
          "type": "address"
        },
        {
          "indexed": true,
          "internalType": "address",
          "name": "newOwner",
          "type": "address"
        }
      ],
      "name": "OwnershipTransferred",
      "type": "event"
    },
    {
      "stateMutability": "payable",
      "type": "fallback",
      "payable": true
    },
    {
      "inputs": [],
      "name": "numProposals",
      "outputs": [
        {
          "internalType": "uint256",
          "name": "",
          "type": "uint256"
        }
      ],
      "stateMutability": "view",
      "type": "function",
      "constant": true
    },
    {
      "inputs": [],
      "name": "owner",
      "outputs": [
        {
          "internalType": "address",
          "name": "",
          "type": "address"
        }
      ],
      "stateMutability": "view",
      "type": "function",
      "constant": true
    },
    {
      "inputs": [
        {
          "internalType": "uint256",
          "name": "",
          "type": "uint256"
        }
      ],
      "name": "proposals",
      "outputs": [
        {
          "internalType": "uint256",
          "name": "nftTokenId",
          "type": "uint256"
        },
        {
          "internalType": "uint256",
          "name": "deadline",
          "type": "uint256"
        },
        {
          "internalType": "uint256",
          "name": "yayVotes",
          "type": "uint256"
        },
        {
          "internalType": "uint256",
          "name": "nayVotes",
          "type": "uint256"
        },
        {
          "internalType": "bool",
          "name": "executed",
          "type": "bool"
        }
      ],
      "stateMutability": "view",
      "type": "function",
      "constant": true
    },
    {
      "inputs": [],
      "name": "renounceOwnership",
      "outputs": [],
      "stateMutability": "nonpayable",
      "type": "function"
    },
    {
      "inputs": [
        {
          "internalType": "address",
          "name": "newOwner",
          "type": "address"
        }
      ],
      "name": "transferOwnership",
      "outputs": [],
      "stateMutability": "nonpayable",
      "type": "function"
    },
    {
      "stateMutability": "payable",
      "type": "receive",
      "payable": true
    },
    {
      "inputs": [
        {
          "internalType": "uint256",
          "name": "_nftTokenId",
          "type": "uint256"
        }
      ],
      "name": "createProposal",
      "outputs": [
        {
          "internalType": "uint256",
          "name": "",
          "type": "uint256"
        }
      ],
      "stateMutability": "nonpayable",
      "type": "function"
    },
    {
      "inputs": [
        {
          "internalType": "uint256",
          "name": "proposalIndex",
          "type": "uint256"
        },
        {
          "internalType": "enum MemersDAO.Vote",
          "name": "vote",
          "type": "uint8"
        }
      ],
      "name": "voteOnProposal",
      "outputs": [],
      "stateMutability": "nonpayable",
      "type": "function"
    },
    {
      "inputs": [
        {
          "internalType": "uint256",
          "name": "proposalIndex",
          "type": "uint256"
        }
      ],
      "name": "executeProposal",
      "outputs": [],
      "stateMutability": "nonpayable",
      "type": "function"
    },
    {
      "inputs": [],
      "name": "withdrawEther",
      "outputs": [],
      "stateMutability": "nonpayable",
      "type": "function"
    }
  ],
  "bytecode": "0x6080604052604051620019543803806200195483398181016040528101906200002991906200025d565b335f73ffffffffffffffffffffffffffffffffffffffff168173ffffffffffffffffffffffffffffffffffffffff16036200009d575f6040517f1e4fbdf7000000000000000000000000000000000000000000000000000000008152600401620000949190620002b3565b60405180910390fd5b620000ae816200013760201b60201c565b508160035f6101000a81548173ffffffffffffffffffffffffffffffffffffffff021916908373ffffffffffffffffffffffffffffffffffffffff1602179055508060045f6101000a81548173ffffffffffffffffffffffffffffffffffffffff021916908373ffffffffffffffffffffffffffffffffffffffff1602179055505050620002ce565b5f805f9054906101000a900473ffffffffffffffffffffffffffffffffffffffff169050815f806101000a81548173ffffffffffffffffffffffffffffffffffffffff021916908373ffffffffffffffffffffffffffffffffffffffff1602179055508173ffffffffffffffffffffffffffffffffffffffff168173ffffffffffffffffffffffffffffffffffffffff167f8be0079c531659141344cd1fd0a4f28419497f9722a3daafe3b4186f6b6457e060405160405180910390a35050565b5f80fd5b5f73ffffffffffffffffffffffffffffffffffffffff82169050919050565b5f6200022782620001fc565b9050919050565b62000239816200021b565b811462000244575f80fd5b50565b5f8151905062000257816200022e565b92915050565b5f8060408385031215620002765762000275620001f8565b5b5f620002858582860162000247565b9250506020620002988582860162000247565b9150509250929050565b620002ad816200021b565b82525050565b5f602082019050620002c85f830184620002a2565b92915050565b61167880620002dc5f395ff3fe608060405260043610610089575f3560e01c8063715018a611610058578063715018a6146101605780637362377b146101765780638da5cb5b1461018c578063efafb22e146101b6578063f2fde38b146101de57610090565b8063013cf08b146100925780630d61b519146100d2578063400e3949146100fa5780635a43dc001461012457610090565b3661009057005b005b34801561009d575f80fd5b506100b860048036038101906100b39190610e95565b610206565b6040516100c9959493929190610ee9565b60405180910390f35b3480156100dd575f80fd5b506100f860048036038101906100f39190610e95565b610244565b005b348015610105575f80fd5b5061010e610583565b60405161011b9190610f3a565b60405180910390f35b34801561012f575f80fd5b5061014a60048036038101906101459190610e95565b610589565b6040516101579190610f3a565b60405180910390f35b34801561016b575f80fd5b5061017461079e565b005b348015610181575f80fd5b5061018a6107b1565b005b348015610197575f80fd5b506101a06108b2565b6040516101ad9190610f92565b60405180910390f35b3480156101c1575f80fd5b506101dc60048036038101906101d79190610fce565b6108d9565b005b3480156101e9575f80fd5b5061020460048036038101906101ff9190611036565b610c8b565b005b6001602052805f5260405f205f91509050805f015490806001015490806002015490806003015490806004015f9054906101000a900460ff16905085565b5f60045f9054906101000a900473ffffffffffffffffffffffffffffffffffffffff1673ffffffffffffffffffffffffffffffffffffffff166370a08231336040518263ffffffff1660e01b815260040161029f9190610f92565b602060405180830381865afa1580156102ba573d5f803e3d5ffd5b505050506040513d601f19601f820116820180604052508101906102de9190611075565b1161031e576040517f08c379a0000000000000000000000000000000000000000000000000000000008152600401610315906110fa565b60405180910390fd5b804260015f8381526020019081526020015f20600101541115610376576040517f08c379a000000000000000000000000000000000000000000000000000000000815260040161036d90611162565b60405180910390fd5b5f151560015f8381526020019081526020015f206004015f9054906101000a900460ff161515146103dc576040517f08c379a00000000000000000000000000000000000000000000000000000000081526004016103d3906111ca565b60405180910390fd5b5f60015f8481526020019081526020015f209050806003015481600201541115610562575f60035f9054906101000a900473ffffffffffffffffffffffffffffffffffffffff1673ffffffffffffffffffffffffffffffffffffffff166398d5fdca6040518163ffffffff1660e01b8152600401602060405180830381865afa15801561046b573d5f803e3d5ffd5b505050506040513d601f19601f8201168201806040525081019061048f9190611075565b9050804710156104d4576040517f08c379a00000000000000000000000000000000000000000000000000000000081526004016104cb90611232565b60405180910390fd5b60035f9054906101000a900473ffffffffffffffffffffffffffffffffffffffff1673ffffffffffffffffffffffffffffffffffffffff1663efef39a182845f01546040518363ffffffff1660e01b81526004016105329190610f3a565b5f604051808303818588803b158015610549575f80fd5b505af115801561055b573d5f803e3d5ffd5b5050505050505b6001816004015f6101000a81548160ff021916908315150217905550505050565b60025481565b5f8060045f9054906101000a900473ffffffffffffffffffffffffffffffffffffffff1673ffffffffffffffffffffffffffffffffffffffff166370a08231336040518263ffffffff1660e01b81526004016105e59190610f92565b602060405180830381865afa158015610600573d5f803e3d5ffd5b505050506040513d601f19601f820116820180604052508101906106249190611075565b11610664576040517f08c379a000000000000000000000000000000000000000000000000000000000815260040161065b906110fa565b60405180910390fd5b60035f9054906101000a900473ffffffffffffffffffffffffffffffffffffffff1673ffffffffffffffffffffffffffffffffffffffff166396e494e8836040518263ffffffff1660e01b81526004016106be9190610f3a565b602060405180830381865afa1580156106d9573d5f803e3d5ffd5b505050506040513d601f19601f820116820180604052508101906106fd919061127a565b61073c576040517f08c379a0000000000000000000000000000000000000000000000000000000008152600401610733906112ef565b60405180910390fd5b5f60015f60025481526020019081526020015f20905082815f018190555061012c42610768919061133a565b816001018190555060025f8154809291906107829061136d565b9190505550600160025461079691906113b4565b915050919050565b6107a6610d0f565b6107af5f610d96565b565b6107b9610d0f565b5f4790505f81116107ff576040517f08c379a00000000000000000000000000000000000000000000000000000000081526004016107f690611457565b60405180910390fd5b5f6108086108b2565b73ffffffffffffffffffffffffffffffffffffffff168260405161082b906114a2565b5f6040518083038185875af1925050503d805f8114610865576040519150601f19603f3d011682016040523d82523d5f602084013e61086a565b606091505b50509050806108ae576040517f08c379a00000000000000000000000000000000000000000000000000000000081526004016108a590611500565b60405180910390fd5b5050565b5f805f9054906101000a900473ffffffffffffffffffffffffffffffffffffffff16905090565b5f60045f9054906101000a900473ffffffffffffffffffffffffffffffffffffffff1673ffffffffffffffffffffffffffffffffffffffff166370a08231336040518263ffffffff1660e01b81526004016109349190610f92565b602060405180830381865afa15801561094f573d5f803e3d5ffd5b505050506040513d601f19601f820116820180604052508101906109739190611075565b116109b3576040517f08c379a00000000000000000000000000000000000000000000000000000000081526004016109aa906110fa565b60405180910390fd5b814260015f8381526020019081526020015f206001015411610a0a576040517f08c379a0000000000000000000000000000000000000000000000000000000008152600401610a0190611568565b60405180910390fd5b5f60015f8581526020019081526020015f2090505f60045f9054906101000a900473ffffffffffffffffffffffffffffffffffffffff1673ffffffffffffffffffffffffffffffffffffffff166370a08231336040518263ffffffff1660e01b8152600401610a799190610f92565b602060405180830381865afa158015610a94573d5f803e3d5ffd5b505050506040513d601f19601f82011682018060405250810190610ab89190611075565b90505f805b82811015610bdb575f60045f9054906101000a900473ffffffffffffffffffffffffffffffffffffffff1673ffffffffffffffffffffffffffffffffffffffff16632f745c5933846040518363ffffffff1660e01b8152600401610b22929190611586565b602060405180830381865afa158015610b3d573d5f803e3d5ffd5b505050506040513d601f19601f82011682018060405250810190610b619190611075565b90505f1515856005015f8381526020019081526020015f205f9054906101000a900460ff16151503610bc7578280610b989061136d565b9350506001856005015f8381526020019081526020015f205f6101000a81548160ff0219169083151502179055505b508080610bd39061136d565b915050610abd565b505f8111610c1e576040517f08c379a0000000000000000000000000000000000000000000000000000000008152600401610c15906115f7565b60405180910390fd5b5f6001811115610c3157610c30611615565b5b856001811115610c4457610c43611615565b5b03610c685780836002015f828254610c5c919061133a565b92505081905550610c83565b80836003015f828254610c7b919061133a565b925050819055505b505050505050565b610c93610d0f565b5f73ffffffffffffffffffffffffffffffffffffffff168173ffffffffffffffffffffffffffffffffffffffff1603610d03575f6040517f1e4fbdf7000000000000000000000000000000000000000000000000000000008152600401610cfa9190610f92565b60405180910390fd5b610d0c81610d96565b50565b610d17610e57565b73ffffffffffffffffffffffffffffffffffffffff16610d356108b2565b73ffffffffffffffffffffffffffffffffffffffff1614610d9457610d58610e57565b6040517f118cdaa7000000000000000000000000000000000000000000000000000000008152600401610d8b9190610f92565b60405180910390fd5b565b5f805f9054906101000a900473ffffffffffffffffffffffffffffffffffffffff169050815f806101000a81548173ffffffffffffffffffffffffffffffffffffffff021916908373ffffffffffffffffffffffffffffffffffffffff1602179055508173ffffffffffffffffffffffffffffffffffffffff168173ffffffffffffffffffffffffffffffffffffffff167f8be0079c531659141344cd1fd0a4f28419497f9722a3daafe3b4186f6b6457e060405160405180910390a35050565b5f33905090565b5f80fd5b5f819050919050565b610e7481610e62565b8114610e7e575f80fd5b50565b5f81359050610e8f81610e6b565b92915050565b5f60208284031215610eaa57610ea9610e5e565b5b5f610eb784828501610e81565b91505092915050565b610ec981610e62565b82525050565b5f8115159050919050565b610ee381610ecf565b82525050565b5f60a082019050610efc5f830188610ec0565b610f096020830187610ec0565b610f166040830186610ec0565b610f236060830185610ec0565b610f306080830184610eda565b9695505050505050565b5f602082019050610f4d5f830184610ec0565b92915050565b5f73ffffffffffffffffffffffffffffffffffffffff82169050919050565b5f610f7c82610f53565b9050919050565b610f8c81610f72565b82525050565b5f602082019050610fa55f830184610f83565b92915050565b60028110610fb7575f80fd5b50565b5f81359050610fc881610fab565b92915050565b5f8060408385031215610fe457610fe3610e5e565b5b5f610ff185828601610e81565b925050602061100285828601610fba565b9150509250929050565b61101581610f72565b811461101f575f80fd5b50565b5f813590506110308161100c565b92915050565b5f6020828403121561104b5761104a610e5e565b5b5f61105884828501611022565b91505092915050565b5f8151905061106f81610e6b565b92915050565b5f6020828403121561108a57611089610e5e565b5b5f61109784828501611061565b91505092915050565b5f82825260208201905092915050565b7f4e4f545f415f44414f5f4d454d424552000000000000000000000000000000005f82015250565b5f6110e46010836110a0565b91506110ef826110b0565b602082019050919050565b5f6020820190508181035f830152611111816110d8565b9050919050565b7f444541444c494e455f4e4f545f455843454544454400000000000000000000005f82015250565b5f61114c6015836110a0565b915061115782611118565b602082019050919050565b5f6020820190508181035f83015261117981611140565b9050919050565b7f50524f504f53414c5f414c52454144595f4558454355544544000000000000005f82015250565b5f6111b46019836110a0565b91506111bf82611180565b602082019050919050565b5f6020820190508181035f8301526111e1816111a8565b9050919050565b7f4e4f545f454e4f5547485f46554e4453000000000000000000000000000000005f82015250565b5f61121c6010836110a0565b9150611227826111e8565b602082019050919050565b5f6020820190508181035f83015261124981611210565b9050919050565b61125981610ecf565b8114611263575f80fd5b50565b5f8151905061127481611250565b92915050565b5f6020828403121561128f5761128e610e5e565b5b5f61129c84828501611266565b91505092915050565b7f4e46545f4e4f545f464f525f53414c45000000000000000000000000000000005f82015250565b5f6112d96010836110a0565b91506112e4826112a5565b602082019050919050565b5f6020820190508181035f830152611306816112cd565b9050919050565b7f4e487b71000000000000000000000000000000000000000000000000000000005f52601160045260245ffd5b5f61134482610e62565b915061134f83610e62565b92508282019050808211156113675761136661130d565b5b92915050565b5f61137782610e62565b91507fffffffffffffffffffffffffffffffffffffffffffffffffffffffffffffffff82036113a9576113a861130d565b5b600182019050919050565b5f6113be82610e62565b91506113c983610e62565b92508282039050818111156113e1576113e061130d565b5b92915050565b7f4e6f7468696e6720746f2077697468647261772c20636f6e74726163742062615f8201527f6c616e636520656d707479000000000000000000000000000000000000000000602082015250565b5f611441602b836110a0565b915061144c826113e7565b604082019050919050565b5f6020820190508181035f83015261146e81611435565b9050919050565b5f81905092915050565b50565b5f61148d5f83611475565b91506114988261147f565b5f82019050919050565b5f6114ac82611482565b9150819050919050565b7f4641494c45445f544f5f57495448445241575f455448455200000000000000005f82015250565b5f6114ea6018836110a0565b91506114f5826114b6565b602082019050919050565b5f6020820190508181035f830152611517816114de565b9050919050565b7f444541444c494e455f45584345454445440000000000000000000000000000005f82015250565b5f6115526011836110a0565b915061155d8261151e565b602082019050919050565b5f6020820190508181035f83015261157f81611546565b9050919050565b5f6040820190506115995f830185610f83565b6115a66020830184610ec0565b9392505050565b7f414c52454144595f564f544544000000000000000000000000000000000000005f82015250565b5f6115e1600d836110a0565b91506115ec826115ad565b602082019050919050565b5f6020820190508181035f83015261160e816115d5565b9050919050565b7f4e487b71000000000000000000000000000000000000000000000000000000005f52602160045260245ffdfea2646970667358221220690637dc4b2003a7c626f21aff2a91b864d4632e8020d92577e99935d1166b8064736f6c63430008150033",
  "immutableReferences": {},
  "source": "// SPDX-License-Identifier: MIT\r\npragma solidity ^0.8.20;\r\n\r\nimport \"@openzeppelin/contracts/access/Ownable.sol\";\r\n\r\ninterface IDemoNFTMarketplace {\r\n    \r\n    function getPrice() external view returns (uint);\r\n\r\n   \r\n    function available(uint _tokenId) external view returns (bool);\r\n\r\n   \r\n    function purchase(uint _tokenId) external payable;\r\n}\r\n\r\n\r\ninterface IMemersNFT {\r\n\r\n    function balanceOf(address owner) external view returns (uint);\r\n\r\n\r\n    function tokenOfOwnerByIndex(address owner, uint index)\r\n        external\r\n        view\r\n        returns (uint);\r\n}\r\n\r\ncontract MemersDAO is Ownable {\r\n\r\n    \r\n       \r\n    struct Proposal {\r\n       \r\n        uint nftTokenId;\r\n       \r\n        uint deadline;\r\n       \r\n        uint yayVotes;\r\n       \r\n        uint nayVotes;\r\n       \r\n        bool executed;\r\n       \r\n        mapping(uint => bool) voters;\r\n    }\r\n\r\n    mapping(uint => Proposal) public proposals;\r\n    uint public numProposals;\r\n\r\n    IDemoNFTMarketplace nftMarketplace;\r\n    IMemersNFT memersNFT;\r\n\r\n    enum Vote {\r\n        YAY,\r\n        NAY \r\n    }\r\n\r\n    constructor(address _nftMarketplace, address _cryptoDevsNFT) Ownable(msg.sender) payable {\r\n        nftMarketplace = IDemoNFTMarketplace(_nftMarketplace);\r\n        memersNFT = IMemersNFT(_cryptoDevsNFT);\r\n    }\r\n\r\n    modifier nftHolderOnly() {\r\n        require(memersNFT.balanceOf(msg.sender) > 0, \"NOT_A_DAO_MEMBER\");\r\n        _;\r\n    }\r\n\r\n    modifier activeProposalOnly(uint proposalIndex) {\r\n        require(\r\n            proposals[proposalIndex].deadline > block.timestamp,\r\n            \"DEADLINE_EXCEEDED\"\r\n        );\r\n        _;\r\n    }\r\n\r\n    modifier inactiveProposalOnly(uint256 proposalIndex) {\r\n        require(\r\n            proposals[proposalIndex].deadline <= block.timestamp,\r\n            \"DEADLINE_NOT_EXCEEDED\"\r\n        );\r\n        require(\r\n            proposals[proposalIndex].executed == false,\r\n            \"PROPOSAL_ALREADY_EXECUTED\"\r\n        );\r\n        _;\r\n    }\r\n\r\n    function createProposal(uint _nftTokenId)\r\n        external\r\n        nftHolderOnly\r\n        returns (uint)\r\n        {\r\n        require(nftMarketplace.available(_nftTokenId), \"NFT_NOT_FOR_SALE\");\r\n        Proposal storage proposal = proposals[numProposals];\r\n        proposal.nftTokenId = _nftTokenId;\r\n  \r\n        proposal.deadline = block.timestamp + 5 minutes;\r\n\r\n        numProposals++;\r\n\r\n        return numProposals - 1;\r\n    }\r\n\r\n    function voteOnProposal(uint proposalIndex, Vote vote)\r\n        external\r\n        nftHolderOnly\r\n        activeProposalOnly(proposalIndex)\r\n    {\r\n        Proposal storage proposal = proposals[proposalIndex];\r\n\r\n        uint voterNFTBalance = memersNFT.balanceOf(msg.sender);\r\n        uint numVotes = 0;\r\n\r\n        for (uint i = 0; i < voterNFTBalance; i++) {\r\n            uint tokenId = memersNFT.tokenOfOwnerByIndex(msg.sender, i);\r\n            if (proposal.voters[tokenId] == false) {\r\n                numVotes++;\r\n                proposal.voters[tokenId] = true;\r\n            }\r\n        }\r\n        require(numVotes > 0, \"ALREADY_VOTED\");\r\n\r\n        if (vote == Vote.YAY) {\r\n            proposal.yayVotes += numVotes;\r\n        } else {\r\n            proposal.nayVotes += numVotes;\r\n        }\r\n    }\r\n\r\n    function executeProposal(uint256 proposalIndex)\r\n        external\r\n        nftHolderOnly\r\n        inactiveProposalOnly(proposalIndex)\r\n    {\r\n        Proposal storage proposal = proposals[proposalIndex];\r\n\r\n        if (proposal.yayVotes > proposal.nayVotes) {\r\n            uint256 nftPrice = nftMarketplace.getPrice();\r\n            require(address(this).balance >= nftPrice, \"NOT_ENOUGH_FUNDS\");\r\n            nftMarketplace.purchase{value: nftPrice}(proposal.nftTokenId);\r\n        }\r\n        proposal.executed = true;\r\n    }\r\n\r\n    function withdrawEther() external onlyOwner {\r\n        uint256 amount = address(this).balance;\r\n        require(amount > 0, \"Nothing to withdraw, contract balance empty\");\r\n        (bool sent, ) = payable(owner()).call{value: amount}(\"\");\r\n        require(sent, \"FAILED_TO_WITHDRAW_ETHER\");\r\n    }\r\n\r\n    receive() external payable {}\r\n\r\n    fallback() external payable {}\r\n\r\n\r\n}",
  "sourcePath": "C:\\Users\\Funso Faleye\\Desktop\\web3\\NFT powered DAO\\my-nft-powered-dao\\contracts\\MemersDAO.sol",
  "compiler": {
    "name": "solc",
    "version": "0.8.21+commit.d9974bed.Emscripten.clang"
  },
  "schemaVersion": "3.4.16",
  "updatedAt": "2025-01-03T12:57:47.201Z",
  "networkType": "ethereum",
  "devdoc": {
    "errors": {
      "OwnableInvalidOwner(address)": [
        {
          "details": "The owner is not a valid owner account. (eg. `address(0)`)"
        }
      ],
      "OwnableUnauthorizedAccount(address)": [
        {
          "details": "The caller account is not authorized to perform an operation."
        }
      ]
    },
    "kind": "dev",
    "methods": {
      "owner()": {
        "details": "Returns the address of the current owner."
      },
      "renounceOwnership()": {
        "details": "Leaves the contract without owner. It will not be possible to call `onlyOwner` functions. Can only be called by the current owner. NOTE: Renouncing ownership will leave the contract without an owner, thereby disabling any functionality that is only available to the owner."
      },
      "transferOwnership(address)": {
        "details": "Transfers ownership of the contract to a new account (`newOwner`). Can only be called by the current owner."
      }
    },
    "version": 1
  },
  "userdoc": {
    "kind": "user",
    "methods": {},
    "version": 1
  }
}